:100000000CC01BC0CAC019C018C017C016C015C08C
:1000100014C013C012C011C010C011241FBECFE500
:10002000D2E0DEBFCDBF10E0A0E6B0E001C01D927F
:10003000A836B107E1F726D016C1E2CF8230A9F089
:10004000833028F08330B1F0843051F0089581304E
:10005000E9F781E090E0909361008093600008955B
:100060001092630010926200089510926100109245
:100070006000089581E090E09093630080936200B7
:1000800008950895DF93CF93CDB7DEB72A970FB6C3
:10009000F894DEBF0FBECDBFBB9ABC9A8EE190E054
:1000A0009A83898381E490E09C838B83CE010196BF
:1000B00057D0209162003091630080916000909150
:1000C0006100892B51F0232B19F4C39AC498FDCFFA
:1000D000C39AC49AC39AC49AFBCF232B19F4C3982A
:1000E000C498FDCFC398C49AC398C49AFBCF08950F
:1000F00083B7826083BF089583B7887F83BF0895E5
:100100008DB184618DB908958DB1837C8DB90895C9
:100110008BB780628BBF08958BB78F7D8BBF08959F
:10012000C49A8BB78F7D8BBF0895C4988BB78062BC
:100130008BBF0895982F9695969590BB9BE09EB99E
:10014000880F880F880F87608093670082E0809314
:10015000660083B7826083BF8DB184618DB90895D5
:10016000FC01909365008093640080E990E09583A2
:10017000848385E990E0978386838AE990E091877C
:10018000808782E08ABD83BF88E689BD80E58DB91E
:1001900081E085BB80E28BBF08951F920F920FB65E
:1001A0000F9211248F9388B38F910F900FBE0F90F1
:1001B0001F9018951F920F920FB60F9211242F9334
:1001C0003F934F935F936F937F938F939F93AF93DF
:1001D000BF93EF93FF939091660091FF0BC090FD4A
:1001E00030C08091670080BB8BE08EB991609093A6
:1001F000660016C08DB1837C8DB983B7887F83BFBD
:1002000080B3809367008BB780628BBF789480B394
:10021000E0916400F09165000190F081E02D099576
:10022000FF91EF91BF91AF919F918F917F916F91CE
:100230005F914F913F912F910F900FBE0F901F90A4
:10024000189583B7887F83BF8DB1837C8DB9109259
:1002500066007894E0916400F09165000280F3817B
:0A026000E02D0995DDCFF894FFCFE3
:00000001FF
